S02B0000544849524450415254595F4C5749505F5241575F42415349435F485454505F4558414D504C45312EBB
S11300004849002055550000E9550000E955000015
S113001000000000000000000000000000000000DC
S1130020000000000000000000000000E95500008E
S11300300000000000000000E9550000E955000040
S1130040E9550000E9550000E9550000E9550000B4
S113005029260000E9550000E9550000E52E0000BE
S1130060FD2E0000152F00002D2F0000452F00004D
S11300705D2F0000914E0000A54E0000B94E000017
S1130080CD4E0000E14E0000F54E0000094F000087
S11300901D4F0000E9550000E9550000E955000036
S11300A0E955000010B5064C2378002B07D1054B09
S11300B0002B02D0044800E000BF0123237010BDD0
S11300C0480000200000000018FE0000084B10B596
S11300D0002B03D00749084800E000BF0748036825
S11300E0002B00D110BD064B002BFBD09847F9E73D
S11300F0000000004C00002018FE000018FE000064
S11301000000000080B582B000AF78607B680022F8
S11301101A70C046BD4602B080BDC04680B582B0EC
S113012000AF02003960FB1D1A70FB1D1B78012B08
S11301300AD0022B0FD0002B14D10E4B0D4A91691B
S11301403A680A439A610FE00A4B0A4AD1693A684D
S11301500A43DA6108E0074B064A116A3A680A431F
S11301601A6201E0172300E000231800BD4602B024
S113017080BDC0460004004080B582B000AF786006
S11301807B6880221A707B6800225A707B68012287
S11301909A707B680022DA70C046BD4602B080BD0A
S11301A080B500AF054B9B78DBB21A0002231340E5
S11301B05A1E9341DBB21800BD4680BD00200041A9
S11301C080B584B000AF78607B681B68FB60FB6817
S11301D01B8A9BB21A0080231B0213405A1E9341B0
S11301E0DBB21800BD4604B080BDC04680B582B005
S11301F000AF7860C0467B681800044B9847031E24
S1130200F9D1C046BD4602B080BDC046C101000060
S113021090B58DB000AF786039602B23FB180022B5
S11302201A707B681B68FB617B681B68BB611723C2
S1130230FC18BB691800594B9847030023700C2322
S1130240FB181800564B98473B685B697B623B6818
S11302509B693B627B6A002B06D1BB6900211800B5
S1130260504B984703007B627B6ADAB20C23FB187D
S11302701A700C23FB1802225A707B6A1B0CDBB227
S11302800C22BA1811001800474B98473B6A002B00
S113029006D1BB6901211800424B984703003B6219
S11302A03B6ADAB20C23FB181A700C23FB180222E7
S11302B05A703B6A1B0CDBB20C22BA1811001800EE
S11302C0394B98473B689A897B68DA803B68DA89BE
S11302D07B681A813B681B7C002B03D1334B984706
S11302E0031E02D08023FB6201E00023FB623B6813
S11302F09B68002B04D03B689B68FA6A1343FB623B
S11303003B681B7F002B04D0FB6A8022D205134379
S1130310FB623B681B6A002B04D03B681B6AFA6AC9
S11303201343FB62FB691A68FB6A1A43FB691A6090
S1130330FB69802252005A601723FB181B780D3387
S1130340DBB218001A4B984701003B681B68FA227D
S1130350D2005343CB18581E3B681B68FA22D200C4
S11303605A43144B110098470300053B3B613B691A
S1130370FF2B02DC3B69002B04DA2B23FB18402201
S11303801A7004E03B69DBB29AB2FB695A812B23F1
S1130390FB181B781800BD460DB090BDC92D000098
S11303A0790100000D2C0000954D0000A101000012
S11303B0CD4B0000EDF8000090B58BB000AFF860B5
S11303C0B9607A60FB68BA681A60FB681B687B6274
S11303D0FB681B6818003B4B984703003B623B6A71
S11303E00233FB613B6A0D33BB610122FB699A4016
S11303F0130019000220344B98471423FB181800EB
S1130400324B98477B681A791423FB181A70BB691E
S1130410DBB21422BA18110018002D4B9847BB699F
S1130420DBB218002B4B98477B681B79002118001E
S1130430294B98477B6A1B680222134001D01C2376
S11304403BE07B6A1B680122134001D0052334E0A2
S1130450FB681B681722BC1818001A4B9847030046
S113046023701E4A1723FB181B78110018001C4B1D
S113047098471723FB181A781A4B9200F968D15041
S1130480FB6800221A76FB6800225A76FB68002279
S11304905A83FB6800229A83FB6825220021995421
S11304A0FB6800221A627B6A14221A607A68FB686D
S11304B0110018000C4B984703001800BD460BB000
S11304C090BDC046C92D00001D01000005010000BB
S11304D0A94A0000ED4A0000812B0000010B000036
S11304E02D2E0000542E00201102000080B584B08F
S11304F000AF78607B681B68FB60FB689B7BDBB2AA
S11305001A00022313400BD0FB6802229A73FB6883
S11305101B8A9BB21A000223134011D0412310E01E
S1130520FB681B8A9BB21A000423134008D0FB68A3
S11305305B68C02292021A43FB685A60182300E0E9
S113054000231800BD4604B080BDC04680B584B009
S113055000AF78607B681B68BB600E23FB18002229
S11305601A800FE00E23FB180E22BA1812880132EB
S11305701A807B681B890E22BA1812889A4201D30A
S113058012230EE0BB689B7BDBB21A0001231340ED
S113059006D1BB689B7BDBB21A0002231340E1D077
S11305A000231800BD4604B080BDC04690B587B096
S11305B000AF786039607B681B68FB601423FB180C
S11305C03A6852881A801223FB1800221A803B686A
S11305D01B885B005BB2012213435BB2DAB2FB6897
S11305E01A751723FC187B681800494B98470300B9
S11305F02370FB685B68474A1A40FB685A601723FC
S1130600FB181B78002B07D11723FC187B681800F4
S1130610414B9847030023701723FB181B78002BCA
S113062000D06DE038E0FB681B8A9BB21A002023DF
S1130630134001D1412366E07B68DB7A002B0CD0A8
S11306401423FB181B88002B07D1FB685B688022EE
S1130650D2021A43FB685A6019E07B6818002F4BDA
S113066098473B685A681223FB181B881221791893
S1130670581C0880D318FA68127ED2B21A70172355
S1130680FC187B681800224B98470300237017233B
S1130690FB181B78002B09D11423FB181B88142288
S11306A0BA18591E1180002BBDD100E0C0467B68EA
S11306B09B7A002B0BD07B681800184B9847FB687B
S11306C05B68C02292021A43FB685A600AE07B68A6
S11306D01800124B9847FB685B68802252021A4349
S11306E0FB685A607B6818000C4B98473B685A6853
S11306F01223FB181B88D318FA68127ED2B21A7020
S11307001723FB181B781800BD4607B090BDC046E0
S11307104D050000FFFFFBFFED040000ED010000AC
S113072080B582B000AF786039607B689B8B9BB2E8
S1130730002B01D005230CE07B6801229A727B68B0
S11307400122DA723A687B6811001800034B98475B
S113075003001800BD4602B080BDC046AD050000D0
S113076090B587B000AF786039607B681B68FB6028
S11307701423FB183A6852881A807B6818003E4B91
S113078098473B681B88DBB2DB18DAB2FB681A7542
S11307901723FC187B681800384B98470300237014
S11307A01723FB181B78002B07D11723FC187B6831
S11307B01800334B9847030023701723FB181B784A
S11307C0002B51D11223FB1800221A8032E0FB685F
S11307D01B8A9BB21A002023134001D1412346E017
S11307E07B681800244B98473B685A681223FB180F
S11307F01B8812217918581C0880D3181A78FB68B2
S11308001A761723FC187B6818001C4B98470300C2
S113081023701723FB181B78002B15D1FB681B8A48
S11308209BB21A000423134004D01723FB181E2282
S11308301A700AE01423FB181B881422BA18591ED4
S11308401180002BC3D100E0C0467B689B7A002B4B
S11308500AD07B681800084B9847FB685B68C02285
S113086092021A43FB685A601723FB181B7818007E
S1130870BD4607B090BDC046ED0100004D05000027
S1130880ED04000080B582B000AF786039607B6809
S11308909B8B9BB2002B01D005230CE07B680122CB
S11308A09A727B680122DA723A687B681100180038
S11308B0034B984703001800BD4602B080BDC046F4
S11308C06107000080B584B000AF78607B681B6866
S11308D0FB60FB681B8A9BB21A0080231B02134037
S11308E05A1E9341DBB21800BD4604B080BDC04619
S11308F080B582B000AF7860C0467B681800044BB6
S11309009847031EF9D1C046BD4602B080BDC0461B
S1130910C508000080B584B000AF78607B681B68B0
S1130920FB607B685B8B99B27B689B8B9AB20A23D2
S1130930FB188A1A1A807B689B8B9BB2013B9AB284
S11309407B689A837B689B8B9BB2002B26D17B6848
S1130950DB7A002B06D0FB685B688022D2021A4344
S1130960FB685A607B689B7A002B0BD07B6818006D
S1130970164B9847FB685B68C02292021A43FB68D7
S11309805A6011E07B681800104B9847FB685B685D
S1130990802252021A43FB685A6005E0FB685B68D8
S11309A00B4A1A40FB685A607B681800074B98474B
S11309B07B681A6A0A23FB181B88D318FA68127E0C
S11309C0D2B21A70C046BD4604B080BDF108000022
S11309D0FFFFFBFF80B584B000AF78607B681B68C5
S11309E0FB60FB681B8A9BB21A000423134004D0EB
S11309F07B6825221E2199541EE07B685B8B99B28B
S1130A007B689B8B9AB20A23FB188A1A1A807B682C
S1130A109B8B9BB2013B9AB27B689A837B681800DC
S1130A20074B98477B681A6A0A23FB181B88D3185C
S1130A301B78DAB2FB681A76BD4604B080BDC046A6
S1130A40F108000080B584B000AF78607B681B6853
S1130A50FB60FB689B7BDBB21A00012313400DD0C3
S1130A60FB6801229A73FB681B8A9BB21A0002235B
S1130A70134003D07B68252241219954FB681B8ACB
S1130A809BB21A000423134015D07B682522182139
S1130A9099547B6800229A837B689B7A002B0AD046
S1130AA07B681800134B9847FB685B68C02292026E
S1130AB01A43FB685A607B689B8B9AB27B685A83A3
S1130AC07B6825229B5CDBB2052B0ED17B6824223C
S1130AD09B5CDBB2002B04D17B681800064B984763
S1130AE003E07B681800054B9847C046BD4604B038
S1130AF080BDC046F1080000D509000015090000BA
S1130B0080B586B000AF0200FB1D1A70FB1D1A7879
S1130B107F4B9200D3587B617B691B683B617B6987
S1130B205B7EDAB27B691B7ED9B20F23FB180A40C5
S1130B301A707B695B8B9BB2002B09D17B699B8B01
S1130B409BB2002B04D07B691800724B984763E07A
S1130B507B695B8B9BB2002B39D07B699B8B9BB2EF
S1130B60002B34D17B6925229B5CDBB2052B2ED173
S1130B707B6924229B5CDBB2002B28D13B690322D6
S1130B801A737B6900225A837B69252200219954B8
S1130B907B699B7A002B0BD07B6918005E4B9847CE
S1130BA03B695B68C02292021A433B695A6002E0C7
S1130BB03B6901229A730F23FB181B78012213400F
S1130BC02AD07B69DB687A691000984724E07B6946
S1130BD05B8B9BB2002B1FD07B699B8B9BB2002B42
S1130BE01AD03B691B8A9BB21A002023134004D1FC
S1130BF07B692522412199540EE07B6924229B5C68
S1130C00DBB2002B04D17B691800444B984703E006
S1130C107B691800424B98477B695B8B9BB2002B26
S1130C203DD07B699B8B9BB2002B38D17B692522FD
S1130C309B5CDBB2052B32D17B6924229B5CDBB24B
S1130C40012B2CD13B6903221A737B6900225A833E
S1130C507B692522002199540F23FB181B7802225B
S1130C6013400BD07B6924229B5CDBB2012B05D1A2
S1130C707B691B697A691000984710E00F23FB1801
S1130C801B78012213400AD07B6924229B5CDBB2CF
S1130C90002B04D17B69DB687A69100098477B6973
S1130CA025229B5CDBB2052B2ED07B6925229B5C25
S1130CB0DBB2002B28D03B6903221A737B69002224
S1130CC05A837B6900229A837B6925229B5CDBB271
S1130CD0412B0ED07B699B7A002B0AD07B691800CC
S1130CE00D4B98473B695B68E022D2021A433B698B
S1130CF05A600F23FB181B780422134004D07B692D
S1130D005B697A6910009847C046BD4606B080BD4D
S1130D10542E0020450A0000F1080000D509000007
S1130D201509000080B582B000AF78607B6880222E
S1130D301A707B6800225A707B6801229A707B6863
S1130D400022DA70C046BD4602B080BD80B582B0D4
S1130D5000AF0200FB1D1A70064BFA1D1278110039
S1130D601F220A40012191400A001A60C046BD4674
S1130D7002B080BD00E100E080B584B000AF7860CF
S1130D807B681B68FB60FB681B8A9BB21A0080238C
S1130D901B0213405A1E9341DBB21800BD4604B037
S1130DA080BDC04680B582B000AF7860C0467B6825
S1130DB01800044B9847031EF9D1C046BD4602B043
S1130DC080BDC046790D000080B582B000AF786068
S1130DD07B6864221A607B6800221A717B68002297
S1130DE01A747B68802292039A607B6801225242C3
S1130DF0DA817B68012252429A817B6800225A611F
S1130E007B6800229A617B6800221A777B68002243
S1130E101A627B68D7229A84C046BD4602B080BD60
S1130E2080B584B000AF78607B681B68BB6000232A
S1130E30FB607B681800144B9847BB681B68022250
S1130E401A43BB681A607B681B6818000F4B9847ED
S1130E50030018000E4B98470CE0FB680133FB605D
S1130E607B68DB881A1EFB689A4203D8BB68102291
S1130E701A8206E0BB681B8A9BB21A001023134037
S1130E80EBD0BD4604B080BDA50D0000992E000036
S1130E904D0D000080B58AB000AF3B0018000E4B2A
S1130EA098473B00C82252001A603B000B4ADA8183
S1130EB03B0016225A613B0017229A613A00084906
S1130EC0084B1800084B9847064B1800074B9847E7
S1130ED0C046BD460AB080BDC90D00001027000001
S1130EE000140042B42D0020B9030000210E0000BC
S1130EF080B582B000AF3B1D1800094B98473B1DDD
S1130F0002221A703B1D19001720064B98473B1DFF
S1130F1019001620034B9847C046BD4602B080BD59
S1130F20250D0000954D000080B582B000AFFB1D7B
S1130F3000221A70FB1D00221A7034E0FB1D1B787E
S1130F4096225343224A0021D154FB1D1B7896223A
S1130F50534302331E4AF91D0978D154FB1D1B78F3
S1130F609622534303331A4A0121D154FB1D1B78A3
S1130F7096225343174A0021D154FB1D1B78962215
S1130F8053430233134AF91D0978D154FB1D1B78CE
S1130F909622534303330F4A0121D154FB1D1A787F
S1130FA0FB1D01321A70FB1D1B78072BC6D90A4B97
S1130FB000221A70084B09229A70084B00221A70FA
S1130FC0064B09229A70C046BD4602B080BDC04699
S1130FD06800002018050020C8090020E809002046
S1130FE080B500AF044B9847044B9847044B98478F
S1130FF0C046BD4680BDC046950E0000F10E0000FF
S1131000290F000080B584B000AF78600A00FB1C93
S11310101A700F23FB1800221A700E23FB180022EB
S11310201A700F23FB1800221A7013E00F23FB1809
S11310301B787A68D31819780E23FB180E22BA1875
S113104012788A181A700F23FB181A780F23FB18CA
S113105001321A700F23FA18FB1C12781B789A427B
S1131060E4D30E23FB181B781800BD4604B080BDE2
S113107090B589B000AF1F23FB1800221A70142307
S1131080FA18564B100019000A231A00544B9847BB
S11310901223FB1800221A801E23FB1800221A7048
S11310A01423FB18092118004E4B984703001A001B
S11310B01423FB185A723B1D6A221A803B1D0A2214
S11310C05A803B1D1422BA185A603B1D00221A7222
S11310D03B1D00225A723B1D00229A721F23FC18EA
S11310E03A1D414B11001800404B984703002370F0
S11310F01CE01F23FC183A1D3B4B110018003B4B0E
S11311009847030023701223FB181B889BB20133FA
S11311109AB21223FB181A801223FB181B889BB265
S1131120642B03D1324B01221A7054E01F23FB18A5
S11311301B78002BDDD13B1D2E4A5A603B1D6922D2
S11311405A8005202C4B9847C04600202A4B9847CC
S1131150031EFAD11F23FC183A1D234B110018005B
S1131160264B9847030023701CE01F23FC183A1DEC
S11311701D4B11001800214B9847030023701223C4
S1131180FB181B889BB201339AB21223FB181A80F6
S11311901223FB181B889BB2642B03D1144B02222D
S11311A01A7018E01F23FB181B78002BDDD11E23B7
S11311B0FC18104B682118000A4B98470300237051
S11311C00C4B68229B5C1E22BA1812789A4202D0F9
S11311D0074B03221A70BD4609B090BD80FC000085
S11311E043FC000005100000B42D00208508000019
S11311F064000020080A002031F7000021070000E5
S113120090B589B000AF1F23FB1800221A70142375
S1131210FA18564B100019000A231A00544B984729
S11312201223FB1800221A801E23FB1800221A70B6
S11312301423FB18092118004E4B984703001A0089
S11312401423FB185A723B1D6A221A803B1D0A2282
S11312505A803B1D1422BA185A603B1D00221A7290
S11312603B1D00225A723B1D00229A721F23FC1858
S11312703A1D414B11001800404B9847030023705E
S11312801CE01F23FC183A1D3B4B110018003B4B7C
S11312909847030023701223FB181B889BB2013369
S11312A09AB21223FB181A801223FB181B889BB2D4
S11312B0642B03D1324B0B221A7054E01F23FB180A
S11312C01B78002BDDD13B1D2E4A5A603B1D2E227C
S11312D05A8005202C4B9847C04600202A4B98473B
S11312E0031EFAD11F23FC183A1D234B11001800CA
S11312F0264B9847030023701CE01F23FC183A1D5B
S11313001D4B11001800214B984703002370122332
S1131310FB181B889BB201339AB21223FB181A8064
S11313201223FB181B889BB2642B03D1144B0C2291
S11313301A7018E01F23FB181B78002BDDD11E2325
S1131340FC18104B2D2118000A4B984703002370FA
S11313500C4B2D229B5C1E22BA1812789A4202D0A2
S1131360074B0D221A70BD4609B090BD8CFC0000DD
S113137043FC000005100000B42D00208508000087
S113138064000020740A002031F7000021070000E7
S113139090B589B000AF1F23FB1800221A701423E4
S11313A0FA18564B100019000A231A00544B984798
S11313B01223FB1800221A801E23FB1800221A7025
S11313C01423FB18092118004E4B984703001A00F8
S11313D01423FB185A723B1D6A221A803B1D0A22F1
S11313E05A803B1D1422BA185A603B1D00221A72FF
S11313F03B1D00225A723B1D00229A721F23FC18C7
S11314003A1D414B11001800404B984703002370CC
S11314101CE01F23FC183A1D3B4B110018003B4BEA
S11314209847030023701223FB181B889BB20133D7
S11314309AB21223FB181A801223FB181B889BB242
S1131440642B03D1324B0B221A7054E01F23FB1878
S11314501B78002BDDD13B1D2E4A5A603B1D2522F3
S11314605A8005202C4B9847C04600202A4B9847A9
S1131470031EFAD11F23FC183A1D234B1100180038
S1131480264B9847030023701CE01F23FC183A1DC9
S11314901D4B11001800214B9847030023701223A1
S11314A0FB181B889BB201339AB21223FB181A80D3
S11314B01223FB181B889BB2642B03D1144B1622F6
S11314C01A7018E01F23FB181B78002BDDD11E2394
S11314D0FC18104B242118000A4B98470300237072
S11314E00C4B24229B5C1E22BA1812789A4202D01A
S11314F0074B17221A70BD4609B090BD98FC000036
S113150043FC000005100000B42D002085080000F5
S113151064000020A40A002031F700002107000025
S113152080B582B000AFFB1D00221A70BB1D0022E3
S11315301A70AF4B1B78002B03D0AD4B1B78022BDA
S113154009D1AC4B1B781A00962353431A00AA4BBB
S1131550D3183B6008E0A74B1B781A00962353432B
S11315601A00A64BD3183B603B680133A44A127897
S11315701A70FB1D10221A70BB1D08221A7012E08B
S1131580FB1D1B783A68D318BA1D12789D498A5CF2
S11315901A70FB1D1A78FB1D01321A70BB1D1A78D4
S11315A0BB1D01321A70FB1D1B78232BE8D9BB1D10
S11315B0BA1D127804321A7012E0FB1D1B783A68C7
S11315C0D318BA1D12788F498A5C1A70FB1D1A78D9
S11315D0FB1D01321A70BB1D1A78BB1D01321A7033
S11315E0FB1D1B784B2BE8D9BB1DBA1D12780432A6
S11315F01A7012E0FB1D1B783A68D318BA1D1278D2
S113160080498A5C1A70FB1D1A78FB1D01321A701E
S1131610BB1D1A78BB1D01321A70FB1D1B78572B9A
S1131620E8D9BB1DBA1D127804321A7012E0FB1DF2
S11316301B783A68D318BA1D127872498A5C1A70FA
S1131640FB1D1A78FB1D01321A70BB1D1A78BB1DD5
S113165001321A70FB1D1B78632BE8D9BB1D0822CD
S11316601A7012E0FB1D1B783A68D318BA1D127861
S113167065498A5C1A70FB1D1A78FB1D01321A70C9
S1131680BB1D1A78BB1D01321A70FB1D1B786D2B14
S1131690E8D9BB1DBA1D127804321A7012E0FB1D82
S11316A01B783A68D318BA1D127857498A5C1A70A5
S11316B0FB1D1A78FB1D01321A70BB1D1A78BB1D65
S11316C001321A70FB1D1B785BB2002BE7DABB1DDD
S11316D004221A7012E0FB1D1B783A68D318BA1D55
S11316E0127849498A5C1A70FB1D1A78FB1D013275
S11316F01A70BB1D1A78BB1D01321A70FB1D1B78B2
S1131700802BE8D9BB1D08221A7012E0FB1D1B7840
S11317103A68D318BA1D12783C498A5C1A70FB1DCA
S11317201A78FB1D01321A70BB1D1A78BB1D0132D9
S11317301A70FB1D1B78822BE8D9BB1DBA1D1278C9
S113174004321A7012E0FB1D1B783A68D318BA1DD4
S113175012782E498A5C1A70FB1D1A78FB1D01321F
S11317601A70BB1D1A78BB1D01321A70FB1D1B7841
S1131770862BE8D9BB1DBA1D127804321A7012E008
S1131780FB1D1B783A68D318BA1D12781F498A5C6E
S11317901A70FB1D1A78FB1D01321A70BB1D1A78D2
S11317A0BB1D01321A70FB1D1B788C2BE8D9BB1DA5
S11317B0BA1D127804321A7012E0FB1D1B783A68C5
S11317C0D318BA1D127811498A5C1A70FB1D1A7855
S11317D0FB1D01321A70BB1D1A78BB1D01321A7031
S11317E0FB1D1B78902BE8D9C046BD4602B080BDD6
S11317F06600002065000020680000201805002015
S113180064000020080A0020740A0020A40A0020B2
S113181080B500AF1B4B00221A701CE01A4B00224B
S11318201A701A4B9847184B1B78002B08D1184B89
S11318309847154B1B78002B04D1164B984702E0B0
S1131840C04600E0C046144B98470E4B1B7801334A
S1131850DAB20C4B1A700B4B1B78072BDED90F4BEB
S11318601B78002B03D00D4B1B78022B03D10B4BA1
S113187001221A7002E0094B02221A70C046BD46CA
S113188080BDC04665000020640000207110000087
S113189001120000911300002115000066000020D1
S11318A080B582B000AF78607B68002B0CD0084B09
S11318B07A685A60064B00229A60C046044B1A6844
S11318C080235B021340F9D0C046BD4602B080BD00
S11318D010E000E080B500AF00200F4B98470200F5
S11318E00E4B1A600D4B18680D4BFA229100984765
S11318F003001A00094B1A60084B1868084BFA22B7
S11319009100984703001A00064B1A60064B052203
S11319101A60C046BD4680BDD149000000000020C9
S1131920EDF800000400002010E000E080B582B073
S113193000AF786004E0074B1B681800064B98471B
S11319407B685A1E7A60002BF5D1C046BD4602B0B2
S113195080BDC04600000020A118000080B582B000
S113196000AF104B1B68002B12D1EFF310837B6088
S11319707B68002B09D172B6BFF35F8F0A4B00223C
S11319801A700A4B01221A7002E0084B00221A70E6
S1131990044B1B685A1C034B1A60C046BD4602B078
S11319A080BDC046CC0A002008000020D00A0020D8
S11319B080B500AF0B4B1B685A1E0A4B1A60094BCB
S11319C01B68002B0AD1084B1B78DBB2002B05D017
S11319D0064B01221A70BFF35F8F62B6C046BD4644
S11319E080BDC046CC0A0020D00A00200800002098
S11319F080B584B000AF0200FB1D1A700F23FB18E2
S1131A00FA1D1278D2091A700E23FB18FA1D1278E7
S1131A1052091A700D4BBB600F23FB181B78002B67
S1131A200FD10F23FB181B789B0010229446BC4453
S1131A306344083B1A680E23FB181B78DB01D31898
S1131A4000E000231800BD4604B080BD00440041FE
S1131A5080B582B000AF0200FB1D1A70FB1D1B781D
S1131A601800034B984703001800BD4602B080BD20
S1131A70F119000080B582B000AF78607B68002265
S1131A801A707B6801225A707B6800229A70C046E3
S1131A90BD4602B080BDC04680B584B000AF020030
S1131AA0FB1D1A70BB1D0A1C1A70FB1D1B78180045
S1131AB00D4B98470300FB60FB1D1B781F2213404E
S1131AC001229A401300BB60BB1D1B78002B03D07E
S1131AD0FB68BA689A6102E0FB68BA685A61C0465A
S1131AE0BD4604B080BDC046511A000080B582B026
S1131AF000AF3B1D18000E4B98473B1D01221A7086
S1131B003B1D19000E200B4B984701210E200A4B58
S1131B1098473B1D00221A703B1D01225A703B1D41
S1131B2019000F20034B9847C046BD4602B080BD44
S1131B30751A00008D2A0000991A000080B584B03F
S1131B4000AF0200FB1D1A700F23FB18FA1D127858
S1131B50D2091A700E23FB18FA1D127852091A7052
S1131B600D4BBB600F23FB181B78002B0FD10F23E9
S1131B70FB181B789B0010229446BC446344083B2A
S1131B801A680E23FB181B78DB01D31800E000232E
S1131B901800BD4604B080BD0044004180B582B049
S1131BA000AF0200FB1D1A70FB1D1B781800034BCD
S1131BB0984703001800BD4602B080BD3D1B0000DD
S1131BC080B582B000AF78607B6800221A707B68B1
S1131BD001225A707B6800229A70C046BD4602B04A
S1131BE080BDC04680B584B000AF0200FB1D1A70F2
S1131BF0BB1D0A1C1A70FB1D1B7818000D4B98475F
S1131C000300FB60FB1D1B781F22134001229A4036
S1131C101300BB60BB1D1B78002B03D0FB68BA68A4
S1131C209A6102E0FB68BA685A61C046BD4604B0D6
S1131C3080BDC0469D1B000080B582B000AF02008D
S1131C40FB1D1A70064BFA1D127811001F220A4060
S1131C50012191400A001A60C046BD4602B080BD11
S1131C6000E100E080B584B000AF78607B681B6859
S1131C70FB60FB681B8A9BB21A0080231B02134083
S1131C805A1E9341DBB21800BD4604B080BDC04665
S1131C9080B582B000AF78607B6801221A707B68DF
S1131CA000225A607B6800229A607B68C0229203FB
S1131CB0DA607B6800221A747B6800225A747B689D
S1131CC001229A747B682022002199547B68143382
S1131CD00C22002118000A4B98477B68094A5A6174
S1131CE07B6800225A627B6800229A627B68002229
S1131CF0DA627B6800221A63C046BD4602B080BD2A
S1131D0055FC0000A086010080B582B000AF786069
S1131D107B680A221A707B6800225A707B68002252
S1131D209A70C046BD4602B080BDC04680B584B03E
S1131D3000AF786039603B681A787B681A703B683A
S1131D405A787B685A703B689A787B689A700C233F
S1131D50FB1818000B4B98470C23FB1801221A7030
S1131D607B681B780C22BA1811001800064B9847A0
S1131D707B681B7801211800044B9847C046BD4678
S1131D8004B080BDC11B00008D2A0000E51B0000CB
S1131D9080B584B000AF78607B681B68FB607B68AB
S1131DA01B6818000B4B9847030018000A4B984710
S1131DB0C0467B681800094B9847031EF9D1FB689D
S1131DC01B6802221A43FB681A60C046BD4604B071
S1131DD080BDC046992E0000391C0000651C00001F
S1131DE080B590B000AF0823FB181800234B984728
S1131DF00823FB1821221A700823FA18204B11001B
S1131E001800204B98470C23FB1818001E4B9847CA
S1131E100C23FB1880229203DA600C23FB183E2269
S1131E205A620C23FB183F229A620C23FB182022CF
S1131E30DA620C23FB18012252421A630C23FB18AA
S1131E40124A5A610C23FA181149124B1800124B0A
S1131E509847104B1800114B98473B1D1800104B26
S1131E6098473B1D01221A703B1D190023200D4B7E
S1131E709847C046BD4610B080BDC046091D00004D
S1131E80102E00202D1D0000911C0000809698004B
S1131E90001C0042DC2D002045340000911D000090
S1131EA0C11B00008D2A000080B500AF0021232053
S1131EB0074B98476420074B984701212320044B84
S1131EC098476420034B9847C046BD4680BDC04632
S1131ED0E51B00002D19000080B586B000AF7860C6
S1131EE00C23FB181800154B98470C23FB181B22D6
S1131EF01A600C23FB1800225A600C23FB180122E1
S1131F001A720C23FB180222DA720C23FB1801222A
S1131F109A720C23FB1819000F20094B98477B6811
S1131F2000220F211800074B984700210F20064B71
S1131F309847C046BD4606B080BDC046352900005E
S1131F40692900007D250000E125000090B587B0D7
S1131F5000AF786039601E491E4B012218001E4BE9
S1131F6098470C23FB1880221A700C23FA180C23B0
S1131F70F91818480B23194CA0473B689AB27968A2
S1131F801448FF23164CA0470C23F9181148FF23CB
S1131F900422134CA0473B6804333B603B68032294
S1131FA013403B603B68002B07D03B689AB20C237C
S1131FB0F9180848FF230A4CA0470549054B00229D
S1131FC01800054B9847C046BD4607B090BDC046B3
S1131FD0102E0020DC2D00200937000039390000C4
S1131FE0D535000080B584B000AF78601749184B30
S1131FF001221800174B98470823FB18C0221A70B7
S1132000154B1B785A1CD1B2134A11703F2213404E
S1132010DAB20823FB185A700823FB1800229A70BE
S11320207B68DAB20823FB18DA707B681B0ADAB221
S11320300823FB181A710823F918054B0522180008
S1132040064B9847C046BD4604B080BD102E002004
S1132050DC2D002009370000D10A0020ED370000F4
S113206080B582B000AF786039603B689AB2796815
S1132070034B1800034B9847C046BD4602B080BDD1
S1132080DC2D0020ED37000080B584B000AF78600F
S11320907B68002B0AD07B689BB20422D31A9AB2C5
S11320A00823F918064B1800064B98470649044BB9
S11320B000221800054B9847C046BD4604B080BDB9
S11320C0DC2D0020ED370000102E00200937000021
S11320D090B587B000AF0200BB1D1A801623FB1811
S11320E000221A801423FB1800221A803449354B2D
S11320F001221800344B9847BB1D1B889B0099B2E2
S11321001623FB18FC2292000A401A80BB1D1B8870
S11321100222134009D01623FB181622BA1812887B
S1132120C02189010A431A8008E01623FB181622ED
S1132130BA181288C02109010A431A801623FB1811
S11321401622BA1812881A801623FB181B881B0A39
S11321509BB2DAB20C23FB181A701623FB181B88E7
S1132160DAB20C23FB185A700C23FB18FF229A7066
S11321700C23FB18FF22DA701023FA180C23F91829
S113218010480423114CA0470D490E4B002218009F
S11321900D4B98471023FB18DB781B021AB210234F
S11321A0FB189B781BB213431AB21423FB181A8032
S11321B01423FB181B881800BD4607B090BDC04609
S11321C0102E0020DC2D00200937000039390000D2
S11321D090B587B000AF0200BB1D1A803B1D0A1CDE
S11321E01A801623FB1800221A803049304B012232
S11321F01800304B9847BB1D1B889B0099B21623CF
S1132200FB18FC2292000A401A80BB1D1B88022284
S1132210134009D01623FB181622BA181288C021BD
S113222089010A431A8008E01623FB181622BA18FB
S11322301288C02109010A431A801623FB181622AA
S1132240BA1812888021C9010A431A801623FB1880
S11322501B881B0A9BB2DAB20C23FB181A701623D4
S1132260FB181B88DAB20C23FB185A703B1D1B8821
S1132270DAB20C23FB189A703B1D1B881B0A9BB215
S1132280DAB20C23FB18DA701023FA180C23F918AD
S113229007480423084CA0470449054B00221800B2
S11322A0044B9847C046BD4607B090BD102E002091
S11322B0DC2D0020093700003939000090B585B0C5
S11322C000AF0200BB1D1A803B1D0A1C1A800E239E
S11322D0FC18BB1D1B8818000C4B98470300238077
S11322E00E23FB180E22B9183A1D098812880A43D6
S11322F01A800E23FB181A88BB1D1B8811001800B6
S1132300034B9847C046BD4605B090BDD1200000A0
S1132310D121000090B585B000AF0200BB1D1A802A
S11323203B1D0A1C1A800E23FC18BB1D1B881800B9
S11323300D4B9847030023803B1D1B88DB439AB257
S11323400E23FB180E21791809880A401A800E23DF
S1132350FB181A88BB1D1B8811001800034B9847F3
S1132360C046BD4605B090BDD1200000D12100007B
S113237090B583B000AF00237B60BB1C00221A80A1
S11323803E4B98473E4B98473E4B9847BC1CC02059
S11323903D4B9847030023807B6801337B607B6857
S11323A00A2B01D9012364E0BB1C1B88374A134064
S11323B0374A9342E8D1374B19001020364B9847DF
S11323C0364B19001220344B984704211420324B09
S11323D098478023DB01190084202F4B9847F7236B
S11323E05B00190070202C4B98478023DB011900F7
S11323F08620294B984701219C20274B9847284B3E
S113240019007420244B984796217620224B984734
S11324108C239B00190082201F4B98470421202005
S11324201D4B984780239B011900F6201D4B9847AC
S1132430F620154B984703001A0080239B01134094
S113244003D12021F620184B9847184B19009220ED
S1132450114B984780239B01190090200E4B9847FD
S1132460012170200F4B9847012174200D4B984790
S113247000231800BD4603B090BDC046D518000027
S1132480E11D0000A91E0000D1200000F0FF0000A3
S1132490708800003B1C0000D121000019250000B9
S11324A0E07C0000BD22000015230000FFFF0000B7
S11324B080B584B000AF0200FB1D1A700F23FB1817
S11324C0FA1D127852091A700F23FB181B78002B7F
S11324D00CD1094BBB600F23FB181B789B00102207
S11324E09446BC446344083B1B6800E00023180086
S11324F0BD4604B080BDC0460018004080B584B01D
S113250000AF0200FB1D1A70FB1D1B7818000B4B5B
S113251098470300FB60FB1D1B781F221340012218
S11325209A401300BB60FB681B69BA6813405A1ECB
S11325309341DBB21800BD4604B080BDB124000055
S113254080B584B000AF0200FB1D1A70FB1D1B7820
S11325501800094B98470300FB60FB1D1B781F22E2
S1132560134001229A401300BB60FB68BA681A61E9
S1132570C046BD4604B080BDB124000080B582B021
S113258000AF786008001100FB1C021C1A70BB1C11
S11325900A1C1A70BB1C1B78002B01D0172319E0EE
S11325A0FB1C1A780D4B9200D358002B07D1FB1C4F
S11325B01A780A4B92007968D15000230AE0FB1C78
S11325C01A78064B9200D2587B689A4201D10023B4
S11325D000E01D231800BD4602B080BD142E00206B
S11325E080B584B000AF0200FB1D1A70BB1D0A1C2D
S11325F01A70BB1D1B78002B0ED1FB1D1B78180015
S1132600084B98470300FB60FB1D1B7801229A408E
S1132610FB68DA60002300E017231800BD4604B00D
S113262080BDC046B124000080B500AF154B002228
S11326301A7020E0134B1B781800134B9847031EA5
S113264013D0104B1B781800104B98470D4B1B7878
S11326501A000F4B9200D358002B06D0094B1B785D
S11326601A000B4B9200D3589847064B1B78013342
S1132670DAB2044B1A70034B1B780F2BDAD9C0461D
S1132680BD4680BD132E0020FD240000412500001E
S1132690142E002080B582B000AF78607B680022E1
S11326A01A70C046BD4602B080BDC04680B582B037
S11326B000AF02003960FB1D1A70FB1D1B78012B53
S11326C00AD0022B0FD0002B14D10E4B0D4A916966
S11326D03A680A439A610FE00A4B0A4AD1693A6898
S11326E00A43DA6108E0074B064A116A3A680A436A
S11326F01A6201E0172300E000231800BD4602B06F
S113270080BDC0460004004080B582B000AF786050
S11327107B6880221A707B6800225A707B680122D1
S11327209A707B680022DA70C046BD4602B080BD54
S113273080B582B000AF0200FB1D1A70064BFA1D73
S1132740127811001F220A40012191400A001A60E8
S1132750C046BD4602B080BD00E100E080B584B053
S113276000AF0200FB1D1A700F23FB18FA1D12782C
S113277052091A700F23FB181B78002B0CD1094B3C
S1132780BB600F23FB181B789B0010229446BC44AB
S11327906344083B1B6800E000231800BD4604B0F6
S11327A080BDC0460018004080B582B000AF0F4B1A
S11327B03B6000237B6011E07B689B000822944609
S11327C0BC446344083B1B685B78DBB25BB2002B00
S11327D001DA012306E07B6801337B607B68002B10
S11327E0EAD000231800BD4602B080BD00180040A6
S11327F080B584B000AF2D4B7B60402100202C4B72
S113280098473B0018002B4B98473B0000221A7056
S11328103B0019000320284B98470320274B984777
S11328200023FB6018E0FB689B0010229446BC4424
S113283063440C3B1A68FB689B0010218C46BC4423
S113284063440C3B1B681B78DBB201210B43DBB2F6
S11328501370FB680133FB60FB68002BE3D0C046B8
S1132860174B9847031EFBD10B23FB1800221A7049
S11328700DE00B23FB181A78124B92000021D15063
S11328800B23FB181A780B23FB1801321A700B2345
S1132890FB181B780F2BECD904200B4B98470B4BE0
S11328A09847C046BD4604B080BDC04600180040ED
S11328B0AD26000095260000A94A0000ED4A00005C
S11328C0A9270000142E002031270000D128000081
S11328D080B582B000AF154B3B6000237B6018E0ED
S11328E07B689B0008229446BC446344083B1A68F6
S11328F07B689B0008218C46BC446344083B1B68EE
S11329001B78DBB202210B43DBB213707B6801330B
S11329107B607B68002BE3D0C046054B9847031EC1
S1132920FBD1C046BD4602B080BDC0460018004081
S1132930A927000080B582B000AF78607B680022D0
S11329401A607B6800225A607B6801221A727B68D5
S113295001225A727B6800229A727B680222DA7220
S1132960C046BD4602B080BD80B586B000AF02004F
S11329703960FB1D1A700823FB181800364B984762
S11329803B685B68DAB20823FB181A700823FB184B
S113299000225A703B681A7A0823FB189A703B6825
S11329A01B68DBB20822BA18110018002B4B984799
S11329B0FB1D1B7818002A4B984703003B61FB1D45
S11329C01B78072213409B00FB603B68DB7A7B612A
S11329D03B689B7A002B03D07B69082213437B61FD
S11329E0FB1D1B78DB08DBB21800FB1D1B78DB0822
S11329F0DBB21A003B6906329200D3580F21FA6801
S1132A0091400A00D2431A407969FB6899400B004F
S1132A101A4311003B69821D9200D1503B685B7AD6
S1132A20002B0AD03B695A69FB1D1B780121994090
S1132A300B001A433B695A610AE03B695B69FA1D62
S1132A401278012191400A00D2431A403B695A612D
S1132A50C046BD4606B080BD09270000954D000064
S1132A605D27000080B582B000AF78607B6880226B
S1132A701A707B6800225A707B6801229A707B6806
S1132A800022DA70C046BD4602B080BD80B584B075
S1132A9000AF02003960FB1D1A700C23FB181800EC
S1132AA0104B98470C23FB1880221A703B681A7845
S1132AB00C23FB185A703B685A780C23FB189A7045
S1132AC03B689A780C23FB18DA700C23FA18FB1D68
S1132AD01B7811001800044B9847C046BD4604B04B
S1132AE080BDC046652A0000954D000080B582B0C7
S1132AF000AF78607B6800221A70C046BD4602B001
S1132B0080BDC04680B586B000AFF860B9607A6019
S1132B101623FB1800221A80BB683B61BB685A0865
S1132B20FB689A4201D2402326E0BB685B083B6104
S1132B300AE03A69FB68D31A3B611623FB181A882A
S1132B401623FB1801321A803A69FB689A42F0D2C4
S1132B501623FB181622BA181288013A1A80162373
S1132B60FB181B88FF2B01D9402305E07B68162244
S1132B70BA1812881A8000231800BD4606B080BD1A
S1132B8080B584B000AF0200FB1D1A70BB1D0A1C87
S1132B901A701A4B1B7801225340DBB2002B03D16D
S1132BA0BB1D1B78002B1BD00C23FB181800144BE7
S1132BB098470C23FB18FA1D12781A700C23FB1883
S1132BC019000C200F4B98470C200F4B98470B4BC8
S1132BD0FA1D12785A70094B01221A70002308E07A
S1132BE0064B5B78FA1D12789A4201D1002300E06B
S1132BF01D231800BD4604B080BDC046D40A002081
S1132C00ED2A0000A94A0000ED4A000080B582B018
S1132C1000AF78600A00FB1C1A707B684D4A93422F
S1132C203FD04C4A934206D84B4A93420FD04B4A6A
S1132C30934221D089E04A4A934200D15BE0494A59
S1132C40934200D16CE0484A93423FD07DE0FB1CA4
S1132C501B78012B0AD002DC002B05D075E0022B77
S1132C6006D0032B06D070E0404B6FE0404B6DE084
S1132C70404B6BE0404B69E0FB1C1B78012B0AD0F6
S1132C8002DC002B05D060E0022B06D0032B06D01B
S1132C905BE003235AE0394B58E0394B56E0394B9B
S1132CA054E0FB1C1B78012B0AD002DC002B05D05E
S1132CB04BE0022B06D0032B06D046E0324B45E016
S1132CC0324B43E0324B41E0324B3FE0FB1C1B787C
S1132CD0012B0AD002DC002B05D036E0022B06D0F3
S1132CE0032B06D031E02C4B30E02C4B2EE02C4B48
S1132CF02CE02C4B2AE0FB1C1B78012B0AD002DCB5
S1132D00002B05D021E0022B06D0032B06D01CE0BB
S1132D10254B1BE0254B19E0254B17E0254B15E00F
S1132D20FB1C1B78012B0AD002DC002B05D00CE025
S1132D30022B06D0032B06D007E01F4B06E01F4BE7
S1132D4004E01F4B02E01F4B00E000231800BD46C7
S1132D5002B080BD0010004200080042000C004296
S1132D6000180042001C004200140042030004004A
S1132D700300050003000600030007000300010030
S1132D8003001E0003001F000300080003000900E5
S1132D9003000A0003000B000300100003001100ED
S1132DA0030012000300130003000C0003000D00D5
S1132DB003000E0003000F000300160003001700B9
S1132DC0030018000300190090B58BB000AF7860C1
S1132DD00C23FB180F4A13CA13C313CA13C30023CB
S1132DE07B620EE00C23FB187A6A9200D3581A1EF9
S1132DF07B689A4202D17B6ADBB206E07B6A0133CC
S1132E007B627B6A052BEDD900231800BD460BB00D
S1132E1090BDC046A4FC000080B582B000AF0200A3
S1132E20FB1D1A70C046BD4602B080BD80B584B09B
S1132E3000AF02003960FB1D1A70134B1B7801228E
S1132E405340DBB2002B15D00023FB600CE00F4B8A
S1132E50FA6892000E49D1500E4BFA689200002194
S1132E60D150FB680133FB60FB68052BEFD9064B9F
S1132E7001221A70FB1D1A78044B92003968D15054
S1132E80C046BD4604B080BDD60A0020D80A002042
S1132E90192E0000542E002090B585B000AF786044
S1132EA00823FA180C4B1000190006231A000B4BC8
S1132EB098470F23FC187B681800094B98470300B8
S1132EC023700F23FB181B780822BA18D35C5BB25B
S1132ED01800BD4605B090BDBCFC000043FC0000DA
S1132EE0C92D000080B500AF034B1B680020984734
S1132EF0C046BD4680BDC046D80A002080B500AF9C
S1132F00034B5B6801209847C046BD4680BDC04660
S1132F10D80A002080B500AF034B9B680220984775
S1132F20C046BD4680BDC046D80A002080B500AF6B
S1132F30034BDB6803209847C046BD4680BDC046AE
S1132F40D80A002080B500AF034B1B6904209847C2
S1132F50C046BD4680BDC046D80A002080B500AF3B
S1132F60034B5B6905209847C046BD4680BDC046FB
S1132F70D80A002080B582B000AF78607B688022D8
S1132F801A707B6800225A707B6801229A707B68F1
S1132F900022DA70C046BD4602B080BD80B584B060
S1132FA000AF0200FB1D1A700F23FB18FA1D1278E4
S1132FB0D2091A700E23FB18FA1D127852091A70DE
S1132FC00D4BBB600F23FB181B78002B0FD10F2375
S1132FD0FB181B789B0010229446BC446344083BB6
S1132FE01A680E23FB181B78DB01D31800E00023BA
S1132FF01800BD4604B080BD0044004180B582B0D5
S113300000AF0200FB1D1A70FB1D1B781800034B58
S1133010984703001800BD4602B080BD9D2F0000F4
S113302080B584B000AF0200FB1D1A70BB1D0A1CE2
S11330301A70FB1D1B7818000D4B98470300FB60AA
S1133040FB1D1B781F22134001229A401300BB6012
S1133050BB1D1B78002B03D0FB68BA689A6102E0A1
S1133060FB68BA685A61C046BD4604B080BDC0461C
S1133070FD2F000080B582B000AF78607B6800222D
S11330801A70C046BD4602B080BDC04680B582B04D
S113309000AF02003960FB1D1A70FB1D1B78012B69
S11330A00AD0022B0FD0002B14D10E4B0D4A91697C
S11330B03A680A439A610FE00A4B0A4AD1693A68AE
S11330C00A43DA6108E0074B064A116A3A680A4380
S11330D01A6201E0172300E000231800BD4602B085
S11330E080BDC0460004004080B500AF054B9B780E
S11330F0DBB21A00022313405A1E9341DBB21800BC
S1133100BD4680BD0020004180B584B000AF78602A
S11331107B681B68FB60FB689B7BDBB21A000223A5
S113312013405A1E9341DBB21800BD4604B080BD63
S113313080B584B000AF78607B681B68FB60FB6877
S11331409B7BDBB21A00012313405A1E9341DBB26E
S11331501800BD4604B080BD80B584B000AF78606F
S11331607B681B68FB60FB689B7BDBB21A00042353
S113317013405A1E9341DBB21800BD4604B080BD13
S113318080B584B000AF78600A00BB1C1A807B68ED
S11331901B68FB607B6818000B4B984703001A0000
S11331A001235340DBB2002B01D0052307E0BB1CF5
S11331B01B88DB05DB0D9AB2FB681A830023180019
S11331C0BD4604B080BDC0463131000080B584B036
S11331D000AF786039607B681B68BB607B6818004F
S11331E01E4B984703001A0001235340DBB2002B07
S11331F001D010232EE00F23FB1800221A70BB68A5
S11332001B8A9BB21A00042313400BD00F23FB1814
S11332101E221A70BB681B8A9BB2042213439AB203
S1133220BB681A827B689B79012B08D1BB681B8B16
S11332309BB2DB05DB0D9AB23B681A8007E0BB68E2
S11332401B8B9BB2FF2213409AB23B681A800F2358
S1133250FB181B781800BD4604B080BD593100002E
S113326090B593B000AF786039607B681B687B636E
S11332707B681B683B631C23FB1818006A4B984748
S11332801C23FB1800225A703B681B78002B03D1C7
S11332901C23FB1800229A703B685A6A0C23FB1803
S11332A01A603B689A6A0C23FB185A603B68DA6A16
S11332B00C23FB189A603B681A6B0C23FB18DA602A
S11332C04723FB1800221A702CE04723FB181A78B6
S11332D00C23FB189200D3583B643B6C002B09D1A0
S11332E04723FB181A783B6B110018004F4B984783
S11332F003003B643B6C01330DD03B6CDAB21C23FE
S1133300FB181A703B6C1B0CDBB21C22BA181100A0
S11333101800474B98474723FB181A784723FB1894
S113332001321A704723FB181B78032BCDD93B6855
S11333301A787B685A713B681A7C7B689A713B687F
S11333409A7C7B68DA710A23FB1800221A80002316
S1133350FB630023BB633B681B78012B29D17B688B
S11333601B681800334B98470300FB62FB6A0D335C
S1133370BB62BB6ADBB218002F4B984703007B6229
S11333803B685B692322BC180A22BA18796A1800C0
S11333902A4B9847030023702323FB181B78002B28
S11333A001D017233CE00A23FB181B88DAB27B6B9D
S11333B09A723B685B68FA6B1343FB633B689B68D8
S11333C0FA6B1343FB633B68DB68FA6B1343FB63E1
S11333D03B681B7C1A00BB6B1343BB633B685B7C81
S11333E0002B03D1164B9847031E03D0FB6B80229E
S11333F01343FB633B689B7C002B04D0BB6B802294
S113340092021343BB637B6B1A68FB6B1A437B6B9F
S11334101A607B6B5A68BB6B1A437B6B5A60002340
S11334201800BD4613B090BD752F00000D2C000090
S1133430954D0000C92D0000CD4B0000052B000068
S1133440E930000090B58BB000AFF860B9607A60E5
S1133450FB68BA681A60FB681B683B623B6A1B68BE
S11334600222134001D01C239CE03B6A1B6801220A
S1133470134001D0052395E0FB681B6818004B4BF3
S113348098470300FB61FB690233BB61FB690D33A1
S11334907B610122BB699A40130019000220444B4E
S11334A098471023FB181800424B98477B6820224A
S11334B09A5C1023FB181A707B69DBB21022BA18CD
S11334C0110018003C4B98477B69DBB218003B4B5A
S11334D098477B6820229B5C00211800384B984752
S11334E07B681B78012B05D13B6A1B680C221A43AD
S11334F03B6A1A602723FB1800221A7010E0272366
S1133500FB181B78FA6802339B00D318043300229B
S11335101A602723FB181A782723FB1801321A7024
S11335202723FB181B78042BE9D9FB6800225A6275
S1133530FB6800221A62FB6800229A85FB6800225D
S11335401A85FB682E2200219954FB682F22002142
S11335509954FB68302200219954FB6803221A72A3
S1133560FB6800221A71FB681B681322BC18180040
S11335700E4B984703002370124A1323FB181B7841
S113358011001800104B98471323FB181A780F4B9F
S11335909200F968D1507A68FB68110018000C4B4E
S11335A0984703001800BD460BB090BDC92D00001C
S11335B08D30000075300000A94A0000ED4A00007B
S11335C0812B00004D3C00002D2E0000542E0020C5
S11335D06132000090B587B000AFF860B96019009F
S11335E0BB1D1A803B1D0A1C1A80FB6830229B5CA1
S11335F0DBB2052B01D105237AE0BB1D1B88002B10
S113360001D1172374E0FB68DB7901225340DBB25C
S1133610002B01D01C236BE01623FB1800221A8018
S11336205EE0FB685B79012B12D1C046FB68180091
S1133630314B984703001A0001235340DBB2002B9F
S1133640F4D13B1D1A88FB68110018002B4B9847D6
S1133650C046FB6818002A4B984703001A00012350
S11336605340DBB2002BF4D11223FB1800221A8042
S11336701523FC181223FA18FB6811001800214BBB
S11336809847030023701523FB181B78002B03D0E5
S11336901523FB181B782BE01623FB181B88162216
S11336A0BA18591C11801A00BB689B181222BA1848
S11336B01288D2B21A70FB689B79012B10D11623A1
S11336C0FB181B881622BA18591C11801A00BB68F3
S11336D09B181222BA181288120A92B2D2B21A7025
S11336E0BB1D1B88BA1D591E1180002B99D10023C4
S11336F01800BD4607B090BD313100008131000093
S113370059310000CD31000080B586B000AFF860BB
S1133710B960FB1D1A70FB685B79012B01D015237E
S113372055E0FB1D1B78002B4AD0BB685B78002B4F
S11337303FD0FB681800284B984703001A00012368
S11337405340DBB2002B07D0BB681B780121180063
S1133750224B984705233AE0BB681B7800211800E8
S11337601E4B9847BB689B789AB2FB6811001800FF
S11337701B4B9847FB68DB7901225340DBB2002BDB
S113378024D0C046FB681800164B984703001A0063
S113379001235340DBB2002BF4D11623FB18002283
S11337A01A801623FA18FB68110018000E4B98476C
S11337B00CE0BB681B7800211800084B984705E013
S11337C0BB681B7801211800044B9847002318009C
S11337D0BD4606B080BDC046313100002130000036
S11337E08131000059310000CD31000080B586B030
S11337F000AFF860B960BB1D1A80FB6830229B5C87
S1133800DBB2052B01D1052387E0BB1D1B88002BF0
S113381001D1172381E01623FB1800221A801423F8
S1133820FB18BA1D12881A805FE0C046FB681800B6
S11338303C4B984703001A0001235340DBB2002B92
S1133840F4D11623FB181B881622BA18591C1180B0
S11338501A00BB689B181A781223FB181A80FB689D
S11338609B79012B15D11623FB181B881622BA1835
S1133870591C11801A00BB689B181B781B021AB2D2
S11338801223FB1800215B5E13431AB21223FB18A8
S11338901A801223FB181A88FB6811001800224BA7
S11338A09847FB68DB791422BA181421791809881F
S11338B01180002B19D0C046FB6818001B4B984799
S11338C003001A0001235340DBB2002BF4D1102370
S11338D0FA18FB6811001800154B98471423FB18BD
S11338E01A881423FB18013A1A80BB1D1B88BA1DC1
S11338F0591E1180002B98D1FB685B79012B0BD1E9
S1133900C046FB6818000B4B984703001A000123BC
S11339105340DBB2002BF4D100231800BD4606B09F
S113392080BDC046313100008131000059310000B2
S1133930CD3100000931000090B589B000AFF860C6
S1133940B9607A601A00BB1C1A80FB6830229B5C49
S1133950DBB2052B01D10523C0E0BB1C1B88002B67
S113396001D11723BAE0FB68DB7901225340DBB2B3
S1133970002B01D01C23B1E01E23FB1800221A8067
S11339801C23FB1800221A801A23FB18BA1C128865
S11339901A808AE0C046FB681800524B984703001F
S11339A01A0001235340DBB2002BF4D11E23FB1871
S11339B01B881E22BA18591C11801A00BB689B1858
S11339C01A781823FB181A80FB689B79012B15D1F0
S11339D01E23FB181B881E22BA18591C11801A00BA
S11339E0BB689B181B781B021AB21823FB18002112
S11339F05B5E13431AB21823FB181A801823FB18B2
S1133A001A88FB6811001800374B9847C046FB68BA
S1133A101800364B984703001A0001235340DBB2C9
S1133A20002BF4D11423FB1800221A801A23FB184C
S1133A301A881A23FB18013A1A801723FC18142336
S1133A40FA18FB6811001800294B984703002370EB
S1133A501723FB181B78002B03D01723FB181B78A4
S1133A603CE01C23FB181B881C22BA18591C11802B
S1133A701A007B689B181422BA181288D2B21A70E2
S1133A80FB689B79012B10D11C23FB181B881C227B
S1133A90BA18591C11801A007B689B181422BA1892
S1133AA01288120A92B2D2B21A70BB1C1B88BA1CBA
S1133AB0591E1180002B00D06CE7FB685B79012B49
S1133AC00BD1C046FB6818000A4B984703001A0044
S1133AD001235340DBB2002BF4D100231800BD4670
S1133AE009B090BD3131000081310000593100002E
S1133AF0CD3100000931000080B584B000AF78609A
S1133B007B681B68BB607B685B6A1B78DAB20E2338
S1133B10FB181A807B685B6A5A1C7B685A627B6854
S1133B209B79012B13D17B685B6A1B78DBB21B0288
S1133B301AB20E23FB1800215B5E13431AB20E2344
S1133B40FB181A807B685B6A5A1C7B685A620E23D6
S1133B50FB181B88DB05DB0D9AB2BB681A837B68F4
S1133B609B8D9BB2013B9AB27B689A85C046BD4649
S1133B7004B080BD80B584B000AF78607B681B68FA
S1133B80FB60074B1A88FB681A837B685B8D9BB2CA
S1133B90013B9AB27B685A85C046BD4604B080BDDD
S1133BA06C2E002080B584B000AF78607B681B6801
S1133BB0FB600A23FB1800221A800A23FB18FA6808
S1133BC0128B1A807B685B8D9BB2013B9AB27B6837
S1133BD05A85C046BD4604B080BDC04680B584B099
S1133BE000AF78607B681B68FB60FB681B8B9AB234
S1133BF00A23FB18D205D20D1A807B681B6A0A229D
S1133C00BA181288D2B21A707B681B6A5A1C7B6875
S1133C101A627B689B79012B0DD17B681B6A0A228F
S1133C20BA181288120A92B2D2B21A707B681B6A4E
S1133C305A1C7B681A627B681B8D9BB2013B9AB24B
S1133C407B681A85C046BD4604B080BD80B586B089
S1133C5000AF0200FB1D1A70FB1D1A788D4B9200F9
S1133C60D3587B617B691B683B617B692F229A5C1B
S1133C707B692E21595C0F23FB180A401A703B699B
S1133C809B7BDAB20C23FB181A803B695B7BDBB2AB
S1133C909AB20C23FB180C21791809880A401A805F
S1133CA00C23FB181B880122134038D07B695B79F5
S1133CB0012B10D17B691B7ADBB2002B0BD17B6902
S1133CC01800754B98477B695B8D9BB2002B02D122
S1133CD03B6901221A737B695B79012B1FD17B69D4
S1133CE01B7ADBB2002B1AD07B6918006B4B984708
S1133CF07B699B8D9BB2002B11D13B6901221A7306
S1133D007B691B7ADBB2012B09D17B69DB79012248
S1133D105340DBB2002B02D03B6902225A730C23BE
S1133D20FB181B880422134000D183E03B691B8AE3
S1133D309BB21A000423134027D07B691B7ADBB2A1
S1133D40012B14D07B6930221E2199547B690322F4
S1133D501A723B6905221A730F23FB181B78082279
S1133D60134004D07B699B697A69100098470A2341
S1133D70FB183A69128B1A803B691B8A9BB2042296
S1133D8013439AB23B691A8254E07B691B7ADBB213
S1133D90012B1ED17B691800414B98477B695B8DD1
S1133DA09BB2002B46D13B6904221A737B693022F3
S1133DB0002199547B6903221A720F23FB181B7884
S1133DC00122134036D07B69DB687A69100098477A
S1133DD030E07B691800334B98477B691B8D9BB29D
S1133DE0002B27D17B693022002199543B6904229E
S1133DF01A737B691B7ADBB2022B0BD10F23FB18DE
S1133E001B780422134015D07B695B697A69100022
S1133E1098470FE07B691B7ADBB2002B0AD10F2392
S1133E20FB181B780222134004D07B691B697A6952
S1133E30100098470C23FB181B880222134024D03F
S1133E407B695B79012B20D17B691B7ADBB2012B67
S1133E501BD17B69DB7901225340DBB2002B14D0E8
S1133E603B6902221A737B6903221A727B6930222E
S1133E70002199540F23FB181B780122134004D00E
S1133E807B69DB687A6910009847C046BD4606B076
S1133E9080BDC046542E0020753B0000F93A000056
S1133EA0A53B0000DD3B000080B582B000AF786028
S1133EB07B6801225A607B6800225A707B68062264
S1133EC01A707B6800221A727B6800225A72C046FC
S1133ED0BD4602B080BDC04680B582B000AF7860F8
S1133EE07B6800221A70C046BD4602B080BDC04641
S1133EF080B582B000AF78607B6801225A707B681D
S1133F0001229A707B680022DA707B6801221A71A0
S1133F107B6807221A707B6800225A71C046BD462E
S1133F2002B080BD80B582B000AF78607B680322A8
S1133F301A707B6800225A707B6801229A70C0460E
S1133F40BD4602B080BDC04680B582B000AF786087
S1133F507B6800221A707B6800225A807B680022EA
S1133F609A807B6800229A717B680022DA717B68F0
S1133F7001225A707B6807221A727B683F225A8199
S1133F807B6801221A737B680122DA817B6806222E
S1133F901A82C046BD4602B080BDC04680B582B01C
S1133FA000AF0200FB1D1A70034AFB1D1B7813723D
S1133FB0C046BD4602B080BD0004004080B582B05A
S1133FC000AF0200FB1D1A70BB1D0A1C1A70FB1DFA
S1133FD01B78012B08D0022B0BD0002B0ED10B4ADF
S1133FE0BB1D1B7853720BE0084ABB1D1B789372F0
S1133FF006E0064ABB1D1B78D37201E0172300E0DC
S113400000231800BD4602B080BDC0460004004035
S113401080B582B000AF0200FB1D1A70084AFB1D78
S11340201B780F210B40D9B253680F20014049007F
S11340301E2083430B435360C046BD4602B080BD7F
S11340400040004180B500AF024B9B691800BD469B
S113405080BDC0460020004180B500AFC046044B7F
S1134060DB6810221340FAD0C046BD4680BDC0466E
S11340700008004080B500AF0C4A0D4B1B689BB292
S113408080218B439BB293840A4B9847074A084B81
S11340909B68D362054A064B5B689362034A044BF0
S11340A01B689BB29384C046BD4680BD0008004097
S11340B0F00A00205940000080B582B000AF020031
S11340C0FB1D1A70FB1D1B78072B33D89A001C4B61
S11340D0D3181B689F461B4BDB682CE01A4B1B6AEA
S11340E09B059B0FDBB21A00184BD34023E08023BF
S11340F01B0220E080231B021DE0124B1B691AE007
S1134100104B1B680222134001D1002313E0104B13
S113411098470C4B1B680422134009D000200D4B18
S113412098470200074B9B681B041B0C534302E097
S1134130094B00E000231800BD4602B080BDC04614
S1134140C4FC0000F00A00200008004000127A00BD
S113415059400000CD4B0000006CDC0280B584B0F7
S113416000AF78601A4B1B6AFB607B681B781A1CD3
S113417003231340DAB20D23FB1803210A40100075
S11341801A7803218A43111C021C0A431A707B68A3
S11341909A780C23FB18D0011A787F210A40111C4D
S11341A0021C0A431A707B685A780C23FB180121FD
S11341B00A4090011A7840218A43111C021C0A43C8
S11341C01A70034BFA681A62C046BD4604B080BD3B
S11341D00008004080B584B000AF78602F4B9B6925
S11341E0FB607B685A780C23FB1801210A40D0003D
S11341F01A7808218A43111C021C0A431A707B682E
S11342009A780C23FB1801210A4090001A780421A3
S11342108A43111C021C0A431A707B681B781A1CFF
S113422007231340DAB20D23FB1807210A401000BC
S11342301A7807218A43111C021C0A431A707B68EE
S11342401A790C23FB18D0011A787F210A40111C1B
S1134250021C0A431A707B68DA780C23FB180121CC
S11342600A4090011A7840218A43111C021C0A4317
S11342701A707B685A790D23FB1801210A4010013A
S11342801A7810218A43111C021C0A431A70034B2A
S1134290FA689A61C046BD4604B080BD000800407B
S11342A080B584B000AF78603A4B98470300FB6058
S11342B0FA68F0231B011340FB60FB681B0AFB60D8
S11342C0FB68022B0FD87B681B7A1B021A00F823A9
S11342D05B011A407B685B891900FF230B401A437A
S11342E02D4B5A600BE07B681B7A9B021B041A0C53
S11342F07B685B899B059B0D1A43274B5A607B683F
S11343009A797B68DB791343DBB21A007B685B889C
S113431013437A6892881A437B685B78DB011A43FB
S11343201D4B1A607B681B78042B2ED1FB68022B73
S113433014D87B681B7B1B061A00F8235B051A4004
S11343407B68DB891B041900FF231B040B40134308
S11343507A68128A1A43104B9A600FE07B681B7BC1
S11343609B061A007B68DB891B0419000B4B0B406E
S113437013437A68128A1A43074B9A60064B1B68E8
S11343807A6812781A43044B1A60C046BD4604B0DA
S113439080BDC04645400000F00A00200000FF0335
S11343A080B582B000AF0200FB1D1A70FB1D1B78A4
S11343B0072B30D89A001B4BD3181B689F461A4B07
S11343C0194A126A02210A431A62002326E0164B94
S11343D0154A926902210A439A611EE0124A124B5D
S11343E01B8A9BB202210B439BB2138215E00E4A37
S11343F00D4B9B8A9BB202210B439BB293820CE030
S11344000A4B1B6802221A43084B1A60084B984750
S113441003E0002302E0172300E000231800BD4658
S113442002B080BDE4FC000000080040F00A002057
S11344307540000080B584B000AF0200FB1D1A7007
S11344400023FB60FB1D1B78072B15D89A00124B29
S1134450D3181B689F460823FB600FE00423FB600E
S11344600CE00123FB6009E00223FB6006E0D0239B
S1134470FB6003E001230AE0002308E0074BDB684C
S1134480FA681A40FB68D31A5A425341DBB2180047
S1134490BD4604B080BDC04604FD000000080040D5
S11344A080B582B000AF3B0002221A7000237B600B
S11344B009E07B68DBB23A0011001800054B98470D
S11344C07B6801337B607B681B2BF2D9C046BD46F9
S11344D002B080BDA94A000080B5A6B000AF904BE1
S11344E0C222D2009A6002208E4B98478E4B984786
S11344F08B4A8E4B1B689B09DBB2191C7F230B4034
S1134500D9B293697F2001400904894803400B43D1
S113451093618823FB181800864B98478823FB185F
S113452007221A708823FB1800225A708823FB186C
S113453000229A708823FB1801221A718823FB1821
S11345400022DA708823FB1818007B4B984704205C
S11345507A4B98477423FB181800794B98477423B7
S1134560FB1804221A707423FB1800225A70754B2E
S1134570984703009022BA1813609023FB181A6816
S1134580F0231B0113409022BA1813609023FB18E8
S11345901B681B0A9022BA1813609023FB181B682F
S11345A0022B15D9614B1B689B0E9422BA18136019
S11345B09423FB181B683F2B03D11F239422BA18A2
S11345C013609423FB181B68DAB27423FB181A7265
S11345D07423FB1800225A807423FB180022DA711A
S11345E07423FB1800229A717423FB1800229A800A
S11345F07423FB18B722D2001A827423FB180722F3
S11346001A737423FB183F22DA817423FB181800F1
S11346104D4B98477023FB1818004C4B9847702358
S1134620FB1800221A707023FB1801229A70702361
S1134630FB1800225A707023FB181800444B98474B
S113464006203E4B9847434B98475823FB181800C5
S1134650414B98475823FB1806221A705823FB181D
S1134660802252005A605823FB1800221A725823E1
S1134670FB1800225A725823FB1819000120374BEB
S113468098470120364B98470C23FB181800354BEC
S113469098470C23FB1801221A700C23FB181900ED
S11346A00020314B98470020304B98470720234B7C
S11346B09847C04607202E4B984703001A00012351
S11346C05340DBB2002BF5D100202A4B9847002140
S11346D00020294B984700210120274B98470021AF
S11346E00220254B98473B0018001B4B98473B0082
S11346F007221A703B0001225A603B0000221A7202
S11347003B0000225A723B0019000020134B9847CB
S11347100020134B9847C046BD4626B080BDC04616
S11347200008004011400000A14400002460800003
S1134730FFFF80FFF13E0000D5410000A1430000CF
S1134740493F000045400000A1420000253F000011
S11347505D41000021480000A93E000051480000CE
S113476075490000D93E0000A94A0000ED4A000046
S1134770354400009D3F0000BD3F000080B582B07D
S113478000AF02003960FB1D1A70FB1D1B78012B62
S11347900AD0022B0FD0002B14D10E4B0D4A916975
S11347A03A680A439A610FE00A4B0A4AD1693A68A7
S11347B00A43DA6108E0074B064A116A3A680A4379
S11347C01A6201E0172300E000231800BD4602B07E
S11347D080BDC0460004004080B500AF024B98473E
S11347E0C046BD4680BDC0465D19000080B500AF1F
S11347F0024B9847C046BD4680BDC046B119000073
S113480080B500AF054B5B78DBB25BB2002B01DAFD
S1134810012300E000231800BD4680BD000C0040C9
S113482080B500AF08210020074B9847074B0122B1
S11348301A70C046054B1B78DBB21A0001231340E3
S1134840F8D1C046BD4680BD7D470000000C004045
S113485080B586B000AF02003960FB1D1A70FB1DE5
S11348601B787B61FB1D1B783B613B681B781B023B
S11348701A007B6913437B613B685B78002B04D08F
S11348807B698022D20213437B613B685B7A002BF5
S113489004D07B698022120313437B613B685B680D
S11348A0012B2CD93B685A683B685B68013B134079
S11348B01AD10023FB600223BB6005E0FB680133CF
S11348C0FB60BB685B00BB603B685A68BB689A428C
S11348D0F4D8FB681B023A6913433B617B6980226D
S11348E0520313437B610AE03B685B681B023A692D
S11348F013433B617B698022920213437B613B68D3
S11349001B7A002B04D07B698022920313437B61C2
S1134910C046134B9847031EFBD1124B9847124ACB
S1134920FB1D1B781370C0460D4B9847031EFBD12B
S11349300E4B3A699A60C046094B9847031EFBD157
S11349400A4B0A4A51688022520211407A690A438A
S11349505A60074B9847C046BD4606B080BDC04666
S113496001480000D9470000080C0040000C00403A
S1134970ED47000080B582B000AF0200FB1D1A7045
S1134980C0460E4B9847031EFBD10D4B98470D4A6A
S1134990FB1D1B781370C046084B9847031EFBD1C0
S11349A0094B094A5268802149020A435A60074B5D
S11349B09847C046BD4602B080BDC04601480000CD
S11349C0D9470000040C0040000C0040ED470000F3
S11349D080B586B000AF0200FB1D1A70C0462A4B9A
S11349E09847031EFBD1294B9847294AFB1D1B7886
S11349F01370C046244B9847031EFBD1254B5B68BC
S1134A00DB04DB0EDBB21800234B984703007B6109
S1134A101F4AFB1D1B7813701E4B5B68DB02DB0F08
S1134A20DAB21323FB181A701C4AFB1D1B7813708F
S1134A30C046154B9847031EFBD1164B9B681B02BF
S1134A401B0C9BB2FB60164B98471323FB181B7877
S1134A50002B09D1FB68012B06D9124BF968786940
S1134A60984703007B610AE01323FB181B78002B93
S1134A7005D0FB6801337A69DA4013007B617B69F6
S1134A801800BD4606B080BD01480000D9470000AB
S1134A90040C0040000C0040B9400000080C004029
S1134AA0ED470000EDF8000080B584B000AF0200CF
S1134AB03960FB1D1A70FB1D1B78FB603B681B787B
S1134AC01B021A00FB681343FB60FB1D1B781800D4
S1134AD0044B9847044BFA6892B25A80C046BD46CC
S1134AE004B080BD354B0000000C004080B582B09E
S1134AF000AF0200FB1D1A700A4B98470A4AFB1DBF
S1134B001B7813700949094B5B889BB28022D20140
S1134B1013439BB24B80064B9847C046BD4602B038
S1134B2080BDC046D9470000020C0040000C004084
S1134B30ED47000080B584B000AF0200FB1D1A7081
S1134B401C4B98471C4AFB1D1B7813701B4B5B883E
S1134B501B051B0FDBB2FB60184A538818490B4036
S1134B605380164A154B5B889BB216490B409BB287
S1134B705380C046114B5B889BB21A008023DB0133
S1134B801340F7D10D4AFB68DBB2191C0F230B400D
S1134B90D9B25388081C0F210140080208490B4070
S1134BA0191C031C0B435380074B9847C046BD4652
S1134BB004B080BDD9470000020C0040000C004046
S1134BC0FFF0FFFFFFBFFFFFED47000080B584B09B
S1134BD000AF0200FB1D1A700D4B98470D4AFB1DD8
S1134BE01B7813700C4B5B881B051B0FDAB20F2369
S1134BF0FB181A70094B98470F23FB181B781800F1
S1134C00074B984703001800BD4604B080BDC0465A
S1134C10D9470000020C0040000C0040ED470000A2
S1134C20D149000080B584B000AF0200FB1D1A70AA
S1134C300F23FB18FA1D1278D2091A700E23FB18E1
S1134C40FA1D127852091A700D4BBB600F23FB1822
S1134C501B78002B0FD10F23FB181B789B0010220D
S1134C609446BC446344083B1A680E23FB181B7823
S1134C70DB01D31800E000231800BD4604B080BD5A
S1134C800044004180B588B000AFF860B9607A6034
S1134C900023FB617B68DB7801225340DBB2002BED
S1134CA035D07B681B78802B0BD0FB6980225202A5
S1134CB01343FB617B681B781B061A00FB691343D3
S1134CC0FB617B685B78002B03D07B685B78022BED
S1134CD010D1FB69802292021343FB617B689B78AD
S1134CE0002B04D0FB698022D2021343FB61FB68D2
S1134CF0BA685A607B685B78012B03D07B685B7869
S1134D00022B07D1FB69224A1340FB6102E0FB68D6
S1134D10BA685A60BB681B041B0CBB61BB681B0CE4
S1134D207B61BA69FB691343A022D2051A43FB686D
S1134D309A627A69FB691343D02212061A43FB680C
S1134D409A627B68DB7801225340DBB2002B1AD0D5
S1134D50FA698023DB0213400AD07B689B78012B1D
S1134D6003D1FB68BA689A6102E0FB68BA685A61C9
S1134D707B685B78012B03D07B685B78022B02D1C4
S1134D80FB68BA689A60C046BD4608B080BDC0469C
S1134D90FFFFFBFF80B584B000AF02003960FB1D4C
S1134DA01A70FB1D1B7818000A4B98470300FB6020
S1134DB0FB1D1B781F22134001229A401300BB6085
S1134DC03A68B968FB681800034B9847C046BD466B
S1134DD004B080BD254C0000854C000080B500AFB8
S1134DE0C046BD4680BDC04680B500AF064B98475F
S1134DF0064B9847064B9847064B9847064B9847EF
S1134E00C046BD4680BDC046D9440000ED1A00002E
S1134E10DD4D0000F1270000DD4D000080B584B0B9
S1134E2000AFF860B960FB1D1A70FB1D1A78FB68AF
S1134E3002329200B968D150FB1D1B78022B07D1B6
S1134E40FB681B7E10221343DAB2FB681A7619E062
S1134E50FB1D1B78032B07D1FB681B7E2022134309
S1134E60DAB2FB681A760DE0FB681B7E5AB2FB1DB2
S1134E701B78012199400B005BB213435BB2DAB299
S1134E80FB681A7600231800BD4604B080BDC046F6
S1134E9080B500AF0020024B9847C046BD4680BD98
S1134EA0314F000080B500AF0120024B9847C04647
S1134EB0BD4680BD314F000080B500AF0220024BDB
S1134EC09847C046BD4680BD314F000080B500AF55
S1134ED00320024B9847C046BD4680BD314F0000B9
S1134EE080B500AF0420024B9847C046BD4680BD44
S1134EF0314F000080B500AF0520024B9847C046F3
S1134F00BD4680BD314F000080B500AF0620024B86
S1134F109847C046BD4680BD314F000080B500AF04
S1134F200720024B9847C046BD4680BD314F000064
S1134F3080B584B000AF0200FB1D1A70FB1D1A7807
S1134F40284B9200D358FB60FB681B689B7BDBB249
S1134F50FA68127E1340DAB2FB68597E0B23FB1801
S1134F600A401A700B23FB181B780122134008D047
S1134F70FB689B68FA6810009847FB681B6801226D
S1134F809A730B23FB181B780222134008D0FB688A
S1134F90DB68FA6810009847FB681B6802229A7362
S1134FA00B23FB181B781022134008D0FB681B69E5
S1134FB0FA6810009847FB681B6810229A730B2349
S1134FC0FB181B782022134008D0FB685B69FA6841
S1134FD010009847FB681B6820229A73C046BD46A0
S1134FE004B080BD702E002080B582B000AF786020
S1134FF07B6800221A70C046BD4602B080BDC04620
S113500080B582B000AF02003960FB1D1A70FB1D31
S11350101B78012B0AD0022B0FD0002B14D10E4B7E
S11350200D4A91693A680A439A610FE00A4B0A4AA9
S1135030D1693A680A43DA6108E0074B064A116A03
S11350403A680A431A6201E0172300E000231800BB
S1135050BD4602B080BDC0460004004080B582B0A9
S113506000AF78607B6880221A707B6800225A70D7
S11350707B6801229A707B680022DA70C046BD46C4
S113508002B080BD80B584B000AF78607B681B68D7
S1135090FB60FB68DB7BDBB21A00802313405A1EE3
S11350A09341DBB21800BD4604B080BD90B58DB00D
S11350B000AF78600C23FB180F4A13CA13C313CA3A
S11350C013C303CA03C30023FB620DE00C23FB18C4
S11350D0FA6A9200D2587B689A4202D1FB6ADBB228
S11350E006E0FB6A0133FB62FB6A072BEED900235F
S11350F01800BD460DB090BD24FD000090B58FB0E2
S113510000AFF860B9607A603623FB1800221A8079
S11351103523FB1800221A703423FB1800221A705E
S11351203123FC18BB681800BE4B9847030023705A
S11351302823FA18BC4B1000190008231A00BB4B93
S113514098471823FA18BA4B1000190010231A00B4
S1135150B64B98473323FB1800221A700EE0332312
S1135160FB181A78FB68023292000021D1503323D5
S1135170FB181A783323FB1801321A703323FB18F7
S11351801B78032BEBD9FB6800221A76FB680022FC
S11351905A763123FB181A78A64B9200F968D1503D
S11351A0FB68BA681A607B689B78082B07D13123A7
S11351B0FB181B780122134001D01723C3E17B683D
S11351C09A78FB681A71BB681B889BB21A0001238A
S11351D0134001D00523B6E1BB68DB7BDBB21A00C8
S11351E01023134001D01C23ADE1BB681B889BB284
S11351F01A000223134001D01C23A4E17B681B7C0A
S1135200002B17D01423FB1818008B4B98477B688E
S11352109B69DAB21423FB181A701423FB180122B9
S11352205A707B685B69DBB21422BA18110018004B
S1135230824B98477B681B7F002B17D01423FB18E5
S113524018007D4B98477B685B6ADAB21423FB181D
S11352501A701423FB1801225A707B681B6ADBB294
S11352601422BA1811001800744B98473123FB1804
S11352701A781823FB185200D35A19000220704BD5
S113528098477B689B78082B0BD13123FB181B783C
S11352905A1C1823FB185200D35A19000220684BD9
S11352A098471023FB181800664B98477B681A78B8
S11352B01023FB181A703123FB181B782822BA1804
S11352C0D35C1022BA18110018005F4B98473123A1
S11352D0FB181B782822BA18D35C18005B4B98473C
S11352E07B689A787B689B791343DBB29AB27B68BC
S11352F01B89134399B27B689A883623FB180A43A7
S11353001A807B685B78002B08D03623FB18362282
S1135310BA181288802109010A431A80C046FB6822
S113532018004B4B9847031EF9D1BB683622BA18B4
S113533012881A807B685B7B002B03D03523FB1813
S113534004221A707B689B7B002B07D03523FB1843
S11353503522BA18127801210A431A70C046FB6834
S113536018003B4B9847031EF9D1BB68FF221A7102
S11353703523FB181B78002B0BD0C046FB681800A4
S1135380334B9847031EF9D1BB683522BA181278FB
S11353905A713423FB187A68927A1A703223FB18F4
S11353A000221A701CE03223FB181B787A68D31889
S11353B0DB7A002B0DD03223FB181B7810229A4085
S11353C01300D9B23423FB183422BA1812780A43D2
S11353D01A703223FB181A783223FB1801321A7020
S11353E03223FB181B78012BDDD9C046FB6818005B
S11353F0174B9847031EF9D1BB683422BA181278A8
S11354009A71C046FB681800114B9847031EF9D1E6
S1135410FB681B79042B1DD0082B00D16FE0002BF7
S11354204AD08FE0AD50000044FD000043FC000072
S11354304CFD0000702E00205D500000954D0000D2
S113544001500000E94F0000A94A0000ED4A0000A5
S113545085500000C046FB6818003D4B9847031E6A
S1135460F9D17B6828229A5CBB681A74C046FB6831
S11354701800374B9847031EF9D17B6829229A5CA0
S1135480BB681A75C046FB681800314B9847031E69
S1135490F9D17B682A229A5CBB681A76C046FB68FD
S11354A018002B4B9847031EF9D17B682B229A5C7A
S11354B0BB685A76002346E0C046FB681800244BBC
S11354C09847031EF9D17B681A8DBB681A82C046BF
S11354D0FB6818001E4B9847031EF9D17B685A8D50
S11354E0BB681A83C046FB681800194B9847031E13
S11354F0F9D17B689A8DBB685A83002323E0C046A8
S1135500FB681800124B9847031EF9D17B689A6A0E
S1135510BB681A61C046FB6818000D4B9847031E10
S1135520F9D17B68DA6ABB689A61C046FB681800E7
S1135530074B9847031EF9D17B681A6BBB68DA6185
S1135540002300E017231800BD460FB090BDC046ED
S11355508550000080B582B000AF194B7B60194BB9
S11355603B607A683B689A420CD007E03B681A1D9E
S11355703A607A68111D796012681A603A68124BB1
S11355809A42F3D3114B3B6004E03B681A1D3A6026
S113559000221A603A680E4B9A42F6D30D4B7B6098
S11355A00D4B7A68FF218A439A600C4A5368802124
S11355B00B4353600A4B98470A4B9847FEE7C04693
S11355C018FE0000000000204800002048000020D1
S11355D0443F00200000000000ED00E000400041D6
S11355E0D9FB000045F8000080B500AFFEE7C046D7
S11355F080B582B000AF0200BB1D1A80BB1D1B88A2
S11356001B021AB2BB1D1B881B0A9BB21BB213439D
S11356101BB29BB21800BD4602B080BD80B582B0FB
S113562000AF0200BB1D1A80BB1D1B881800034B72
S1135630984703001800BD4602B080BDF155000034
S113564080B582B000AF78607B681A067B68190267
S1135650FF231B040B401A437B68190AFF231B0218
S11356600B401A437B681B0E13431800BD4602B05F
S113567080BDC04680B582B000AF78607B681800FA
S1135680034B984703001800BD4602B080BDC046D6
S113569041560000B0B58CB004AF786039607B68C7
S11356A05B68FB61FB691B789BB20F2213409BB2C2
S11356B09B009AB21623FB181A801623FB181B882A
S11356C05B429BB21AB27B68110018009E4B98474C
S11356D0031E00D021E17B681B89032B00D81CE149
S11356E07B685A681523FB1812781A701523FB1867
S11356F01B78002B00D107E1082B00D007E1012320
S1135700BB61924B1B68F0221340E02B01D10023B4
S1135710BB618E4B1B683A68110018008C4B98478C
S1135720031E01D00023BB61BB69002B04D17B683D
S11357301800884B984703E17B681B89072B00D826
S1135740EAE07B681800844B9847031E04D07B680A
S11357501800804B9847F3E07B68222118007A4BAD
S11357609847031E39D01623FB1800229A5E7B68E3
S113577011001800744B9847031E00D0D2E07B68D8
S11357801B89002219000220744B984703003B61D7
S11357903B69002B00D1C7E07A683B69110018000F
S11357A06F4B9847031E00D0C0E03B695B68FB6108
S11357B01623FB181B885B429BB21AB23B6911008B
S11357C01800614B9847031E00D0B1E07B681800B5
S11357D0604B98473B697B6009E022235A427B680F
S11357E011001800584B9847031E00D0A2E07B68B4
S11357F05B68FB60554B1A68FB69FF2111400C0084
S1135800197B00200140081C211C01431973110A53
S1135810FF2001400C00597B00200140081C211C82
S113582001435973110CFF2001400C00997B0020A7
S11358300140081C211C01439973100EDA7B0021DE
S11358400A40111C021C0A43DA73464B1A68FB69AE
S1135850FF2111400C00197C00200140081C211C70
S113586001431974110AFF2001400C00597C0020E7
S11358700140081C211C01435974110CFF200140F4
S11358800C00997C00200140081C211C01439974E0
S1135890100EDA7C00210A40111C021C0A43DA743F
S11358A0FB6800221A70FB689A7800210A409A70FB
S11358B0DA7800210A40DA70FB69FF221A72FB6968
S11358C09A7A00210A409A72DA7A00210A40DA723E
S11358D01623FB1800229A5E7B68110018001A4BED
S11358E09847031E12D10B23FC18184978683B68AB
S11358F002930123019300230093FF2300221A4DF6
S1135900A8470300237001E0C04600E0C0467B685E
S11359101800104B984713E0C0467B6818000D4BE5
S113592098470DE0C04606E0C04604E0C04602E0E9
S1135930C04600E0C0467B681800064B9847C04646
S1135940BD4608B0B0BDC04635820000982E002088
S11359506D62000049830000D55B0000197E0000E1
S11359601D850000902E0020815F000080B582B06C
S113597000AF78600A00FB1C1A70FB1C1A787B6865
S113598003211800024B9847C046BD4602B080BDB3
S1135990BD59000080B582B000AF78600A00FB1CDE
S11359A01A70FB1C1A787B680B211800024B98476D
S11359B0C046BD4602B080BDBD59000090B589B057
S11359C002AF786008001100FB1C021C1A70BB1C9B
S11359D00A1C1A700022242101203B4B9847030023
S11359E07B617B69002B6BD07B685B683B617B6967
S11359F05B68FB60FB68FA1C12781A70FB68BA1CBF
S1135A0012785A70FB681A7900210A401A715A797F
S1135A1000210A405A71FB689A7900210A409A7160
S1135A20DA7900210A40DA717B695B68083318006F
S1135A307B685B681C221900244B9847FB689A78A2
S1135A4000210A409A70DA7800210A40DA707B69F2
S1135A505A89FB68110018001D4B984703001A006F
S1135A60FB68FF2111400C00997800200140081CBC
S1135A70211C01439970120A90B2DA7800210A407D
S1135A80111C021C0A43DA703B691A7B597B090218
S1135A900A43997B09040A43DB7B1B061343BB605F
S1135AA00823FA1878690123019300230093FF2344
S1135AB00021084CA0477B691800074B984700E079
S1135AC0C046BD4607B090BD197E000043FC0000EF
S1135AD0A55B00000D6200004983000080B588B01A
S1135AE000AF786039607B68FB610E23FB180022ED
S1135AF01A8000237B61FB69012213403B613B69EF
S1135B00002B0DD03B68002B0ADD0E23FB1801335C
S1135B10FA69511CF96112781A703B68013B3B60C9
S1135B20FB69BB610AE0BB699A1CBA611B881A0055
S1135B307B699B187B613B68023B3B603B68012BA4
S1135B40F1DC3B68002B04DD0E23FB18BA691278E4
S1135B501A700E23FB181B881A007B699B187B6143
S1135B607B691A0C7B691B041B0CD3187B617B6952
S1135B701A0C7B691B041B0CD3187B613B69002B3B
S1135B8009D07B691B021B041A0C7B691B0AFF21C9
S1135B900B4013437B617B699BB21800BD4608B080
S1135BA080BDC04680B582B000AF78600A00BB1CDF
S1135BB01A80BB1C1A887B6811001800044B984794
S1135BC00300DB439BB21800BD4602B080BDC04653
S1135BD0DD5A000080B586B000AF786000237B6199
S1135BE00F23FB1800221A707B683B612FE03B698E
S1135BF05A683B695B8919001000224B98470300DF
S1135C001A007B699B187B617B691A0C7B691B04F6
S1135C101B0CD3187B613B695B89012213409BB247
S1135C20002B11D00F23FB180F22BA181278012170
S1135C308A1A1A707B691B021B041A0C7B691B0AE3
S1135C40FF210B4013437B613B691B683B613B694C
S1135C50002BCCD10F23FB181B78002B09D07B69B8
S1135C601B021B041A0C7B691B0AFF210B40134304
S1135C707B617B699BB2DB439BB21800BD4606B0D7
S1135C8080BDC046DD5A000080B584B000AF7860A6
S1135C90174B1B68FB6014E0FB682D229B5C1A0009
S1135CA0012313400AD07B681A68FB685B685A407A
S1135CB0FB689B68134001D1FB6815E0FB681B6817
S1135CC0FB60FB68002BE7D10A4B1B68002B07D055
S1135CD0084B1B682D229B5C1A000123134001D141
